:100000000C94210D0C944B0D0C944B0D0C944B0D3A
:100010000C944B0D0C944B0D0C944B0D0C944B0D00
:100020000C944B0D0C944B0D0C94B98A0C94368B9C
:100030000C944B0D0C944B0D0C944B0D0C944B0DE0
:100040000C944B0D0C948D730C944B0D0C944B0D28
:100050000C944B0D0C944B0D0C9410840C94188A3A
:100060000C944B0D0C944B0D0C944B0D0C944B0DB0
:100070000C944B0D0C944B0D0C944B0D0C944B0DA0
:100080000C944B0D0C944B0D0C944B0D0C944B0D90
:100090000C9411860C944B0DA787D387F587F587B1
:1000A000F587F587F587F587F587F587F587F58770
:1000B000F587F587EB87E387DB87F587F587F58796
:1000C000F587F587F587F587CD87B387BB87C58724
:1000D000084AD73B3BCE016E84BCBFFDC12F3D6CAF
:1000E00074319ABD56833DDA3D00C77F11BED9E415
:1000F000BB4C3E916BAAAABE000000803F05A84CF5
:10010000CDB2D44EB93836A9020C50B991868808C0
:100110003CA6AAAA2ABE000000803F004E414E49DC
:100120004E495459494E46CDCCCC3D0AD7233C17B5
:10013000B7D13877CC2B329595E6241FB14F0A0002
:100140000020410000C84200401C4620BCBE4CCAF2
:100150001B0E5AAEC59D742020506C616E6E657288
:1001600042756666657242797465733A200020466E
:10017000726565204D656D6F72793A2000436F6D31
:1001800070696C65643A204D6179203239203230D3
:1001900031370A00207C20417574686F723A20283C
:1001A0006E6F6E652C2064656661756C7420636F7C
:1001B0006E666967290A00323031372D30352D31AE
:1001C000322031323A303000204C61737420557047
:1001D00064617465643A2000312E312E310A004D7D
:1001E00061726C696E0020536F667477617265206E
:1001F00052657365740A00205761746368646F67A1
:100200002052657365740A002042726F776E206F0A
:1002100075742052657365740A00204578746572A0
:100220006E616C2052657365740A00506F77657259
:1002300055700A0073746172740A005072696E74AA
:1002400065722068616C7465642E206B696C6C2823
:10025000292063616C6C6564210A004B494C4C4554
:10026000442E20004B494C4C20636175736564201B
:10027000627920746F6F206D75636820696E6163A9
:10028000746976652074696D65202D2063757272BE
:10029000656E7420636F6D6D616E643A200020742A
:1002A0006F6F206C6F6E6720657874727573696FFD
:1002B0006E2070726576656E7465640A0020636FE7
:1002C0006C6420657874727573696F6E20707265E6
:1002D00076656E7465640A006F6B00526573656EB7
:1002E000643A20004E6F2063617365206C69676813
:1002F000740A003A20007A5F6D696E3A20202D3230
:1003000030207A5F6D61783A20203230005A204FD9
:1003100066667365742000546F6F20666172206694
:10032000726F6D207265666572656E636520706FB1
:10033000696E740A004D34323120726571756972CC
:10034000656420706172616D6574657273206D699A
:100350007373696E670A004D65736820706F696E0C
:10036000742063616E6E6F74206265207265736FB6
:100370006C7665640A00426564204C6576656C693C
:100380006E6720004661696C656420746F20656E3D
:1003900061626C6520426564204C6576656C696EAF
:1003A000670A0043290A0061626C656420286D6950
:1003B0006E2074656D702000436F6C6420657874E6
:1003C000727564657320617265200020643A0020B4
:1003D000693A0020703A00205A0020590058002045
:1003E000204D61783A2000205A0020590058002002
:1003F000204D696E3A20004F6666004F6E20005314
:100400006F667420656E6473746F70733A20005366
:10041000657474696E672054726176656C204163FF
:1004200063656C65726174696F6E3A200053657420
:1004300074696E67205265747261637420416363EE
:10044000656C65726174696F6E3A200053657474EF
:10045000696E67205072696E7420416363656C65D4
:10046000726174696F6E3A200053657474696E67C7
:10047000205072696E7420616E64205472617665DA
:100480006C20416363656C65726174696F6E3A20BC
:10049000004649524D574152455F4E414D453A4DF8
:1004A00061726C696E20312E312E312028476974BB
:1004B0006875622920534F555243455F434F444569
:1004C0005F55524C3A68747470733A2F2F67697491
:1004D0006875622E636F6D2F4D61726C696E46692F
:1004E000726D776172652F4D61726C696E2050522A
:1004F0004F544F434F4C5F56455253494F4E3A313C
:100500002E30204D414348494E455F545950453A9D
:100510003344205072696E746572204558545255A8
:100520004445525F434F554E543A31205555494446
:100530003A63656465326132662D343161322D343F
:100540003734382D396231322D63353563363266B2
:1005500033363766660A003F0A0020573A003F0AE2
:100560000020573A006F6B004D3131332053004B60
:10057000494C4C45442E20004543484F00494E46C7
:100580004F004552524F52530044525952554E005B
:10059000434F4D4D554E49434154494F4E006F66B0
:1005A000660078057D05820589059005444542551C
:1005B000473A0050726F7465637465642050696EC9
:1005C0000A002569730025696D2025697300256976
:1005D000682025696D2025697300256964202569D7
:1005E000682025696D2025697300256979202569B2
:1005F00064202569682025696D2025697300507283
:10060000696E742074696D653A2000205A3A2000A2
:1006100020593A200042656420583A200042696C13
:10062000696E656172204C6576656C696E672047FE
:100630007269643A0A0052756E6E696E6720696E5F
:10064000204452592D52554E206D6F64650A004763
:100650003239204175746F20426564204C6576659F
:100660006C696E670A0028422961636B002846297D
:10067000726F6E74002852296967687400284C29CB
:10068000656674003F2856296572626F7365206C39
:100690006576656C20697320696D706C617573692E
:1006A000626C652028302D34292E0A0042616420B6
:1006B0005A2076616C75650A004E6F2062696C691C
:1006C0006E65617220677269640A0047322F473392
:1006D0002062616420706172616D65746572730A75
:1006E000004163746976652045787472756465723B
:1006F0003A20002042403A0020403A00202F0020BB
:10070000423A00202F0020543A0020706F73697421
:10071000696F6E206F7574206F662072616E6765F9
:100720002E0A003F50726F6265200020453A00207B
:100730005A3A0020593A00583A005A2070726F62B3
:1007400065206F75742E206265640A004732382078
:100750005A20466F7262696464656E0A005761725E
:100760006E696E673A20486F6D696E672042756DDD
:10077000702044697669736F72203C20310A0062F0
:100780007573793A2070617573656420666F7220A5
:10079000696E7075740A00627573793A20706175BC
:1007A00073656420666F7220757365720A006275E6
:1007B00073793A2070726F63657373696E670A00AC
:1007C000556E6B6E6F776E20636F6D6D616E643A00
:1007D000202200205A3A200020593A200042656425
:1007E00020583A20002066697273740A005A005932
:1007F000005800486F6D65200020496E76616C6975
:100800006420657874727564657220004B494C4CA5
:1008100045442E20005072696E7465722073746FA7
:10082000707065642064756520746F206572726FE6
:1008300072732E2046697820746865206572726F25
:100840007220616E6420757365204D3939392074CA
:100850006F20726573746172742E202854656D70F8
:100860006572617475726520697320726573657451
:100870002E2053657420697420616674657220723D
:10088000657374617274696E67290A004E6F204C3B
:10089000696E65204E756D62657220776974682097
:1008A000636865636B73756D2C204C617374204CA9
:1008B000696E653A20004E6F20436865636B7375FF
:1008C0006D2077697468206C696E65206E756D6245
:1008D00065722C204C617374204C696E653A20005F
:1008E000636865636B73756D206D69736D617463A7
:1008F000682C204C617374204C696E653A20004C62
:10090000696E65204E756D626572206973206E6F29
:1009100074204C617374204C696E65204E756D6255
:1009200065722B312C204C617374204C696E653AD2
:1009300020004D31313000656E7175657565696EE9
:1009400067202200FF01FF0000A0400000A040003F
:1009500000004000007A4300001A4300007043008A
:1009600000000000001A430000000000007A43006D
:10097000001A430000704300000000000000000067
:1009800000000020204D383531205A005A2D507279
:100990006F6265204F666673657420286D6D293A15
:1009A0000A0020440020490020204D3330312050DF
:1009B000005049442073657474696E67733A0A0085
:1009C000205A0020204D3432302053004175746F7E
:1009D00020426564204C6576656C696E673A0A0052
:1009E000205A0020590020204D323036205800482F
:1009F0006F6D65206F66667365743A0A0020450066
:100A0000205A002059002058002042002054002085
:100A1000204D323035205300416476616E63656449
:100A20003A20533C6D696E5F6665656472617465FA
:100A30003E20543C6D696E5F74726176656C5F66D2
:100A4000656564726174653E20423C6D696E5F73DA
:100A500065676D656E745F74696D655F6D733E206B
:100A6000583C6D61785F78795F6A65726B3E205A99
:100A70003C6D61785F7A5F6A65726B3E20453C6DC4
:100A800061785F655F6A65726B3E0A0020540020E2
:100A9000520020204D323034205000416363656C99
:100AA00065726174696F6E2028756E6974732F7337
:100AB00032293A20503C7072696E745F61636365DD
:100AC0006C3E20523C726574726163745F61636353
:100AD000656C3E20543C74726176656C5F61636343
:100AE000656C3E0A00204500205A00205900202055
:100AF0004D3230312058004D6178696D756D20415F
:100B00006363656C65726174696F6E2028756E69C8
:100B100074732F7332293A0A00204500205A0020AE
:100B2000590020204D3230332058004D6178696DD6
:100B3000756D206665656472617465732028756ED5
:100B40006974732F73293A0A00204500205A002047
:100B5000590020204D39322058005374657073209D
:100B600070657220756E69743A0A0020204D32302B
:100B7000302044300A0020204D3230302044002004
:100B800044697361626C65640A0046696C616D65F5
:100B90006E742073657474696E67733A0020204721
:100BA0003231203B20556E69747320696E206D6D63
:100BB0000A0A0048617264636F6465642044656674
:100BC00061756C742053657474696E6773204C6F23
:100BD000616465640A00454550524F4D2063686565
:100BE000636B73756D206D69736D617463680A0062
:100BF000206279746573290A002073746F726564CA
:100C00002073657474696E677320726574726965A8
:100C1000766564202800204D61726C696E3D563304
:100C200037290A0028454550524F4D3D0045455053
:100C3000524F4D2076657273696F6E206D69736DCA
:100C4000617463682000206279746573290A005317
:100C5000657474696E67732053746F7265642028BD
:100C6000004572726F722077726974696E672074C2
:100C70006F20454550524F4D210A007A5F6D696ED5
:100C80003A2000795F6D61783A2000785F6D696E77
:100C90003A20005265706F7274696E6720656E64E9
:100CA00073746F70207374617475730A00205A3AFC
:100CB0000020593A0020583A00656E6473746F70D2
:100CC00073206869743A200020746F6F206C6F6E17
:100CD0006720657874727573696F6E2070726576BF
:100CE000656E7465640A0020636F6C6420657874B7
:100CF000727573696F6E2070726576656E74656467
:100D00000A006563686F3A004572726F723A00209C
:100D10005A3A0020593A0020436F756E7420583AB1
:100D20000024F4D43050C38E20C2A24017828B70AE
:100D300011127A910D816CD90AA861E108C7586631
:100D400007615143061E4B5D05C145A7041A4111B9
:100D500004093D9803713931034036DB0265339154
:100D600002D4305402802E1D02632CEE01752AC578
:100D700001B028A001102781018F2564012B244B8D
:100D800001E0223401AC211F018D200D01801FFCE8
:100D900000841EED00971DDF00B81CD200E61BC6C4
:100DA00000201BBC00641AB200B219A8000A19A0E6
:100DB000006A189900D117910040178B00B516846E
:100DC0000031167E00B31579003A157300C7146F11
:100DD0000058146A00EE1366008813630025135E42
:100DE00000C7125B006C12570015125400C111515C
:100DF0000070114F0021114B00D61049008D104793
:100E0000004610440002104200C00F4000800F3E18
:100E100000420F3C00060F3B00CB0E3800930E370C
:100E2000005C0E3500270E3400F30D3200C10D3189
:100E300000900D3000600D2E00320D2D00050D2CA0
:100E400000D90C2B00AE0C2900850C29005C0C2766
:100E500000350C27000E0C2600E80B2400C40B24E0
:100E600000A00B23007D0B23005A0B2100390B211E
:100E700000180B2000F80A1F00D90A1E00BB0A1E2A
:100E8000009D0A1D00800A1D00630A1C00470A1B02
:100E9000002C0A1B00110A1A00F7091A00DD0919B3
:100EA00000C4091900AB091900920917007B091841
:100EB00000630917004C09160036091600200916B0
:100EC000000A091500F5081500E0081400CC081404
:100ED00000B8081400A4081400900813007D08123C
:100EE000006B08130058081200460812003408115D
:100EF00000230811001208110001081100F007106A
:100F000000E0071000D0071000C0071000B0070F66
:100F100000A107100091070E0083070F0074070F50
:100F20000065070E0057070E0049070E003B070D2E
:100F3000002E070E0020070D0013070D0006070DF9
:100F400000F9060C00ED060D00E0060C00D4060CBE
:100F500000C8060C00BC060C00B0060C00A4060B72
:100F60000099060C008D060B0082060B0077060B1D
:100F7000006C060B0061060A0057060B004C060ABF
:100F80000042060A0038060A002E060A0024060A55
:100F9000001A060A001006090007060A00FD0509E6
:100FA00000F4050900EB050900E2050900D905096F
:100FB00000D0050900C7050900BE050900B50508F0
:100FC00000AD050800A50509009C0508009405086A
:100FD000008C050800840508007C050800740508DD
:100FE000006C050700650508005D0507005605084B
:100FF000004E0507004705070040050800380507B3
:1010000000310507002A050700230507001C050617
:1010100000160507000F0507000805060002050772
:1010200000FB040600F5040700EE040600E80406D1
:1010300000E2040700DB040600D5040600CF040626
:1010400000C9040600C3040600BD040600B7040678
:1010500000B1040500AC040600A6040600A00405C7
:10106000009B04060095040500900406008A040510
:101070000085040500800406007A04050075040557
:1010800000700405006B040500660405006104059A
:10109000005C04050057040500520405004D0405DA
:1010A0000048040500430405003E0404003A04051A
:1010B0000035040500300404002C04050027040456
:1010C00000230405001E0404001A0404001604058D
:1010D00000110404000D04040009040500040404C4
:1010E0000000040400FC030400F8030400F40304FB
:1010F00000F0030400EC030400E8030400E403042C
:1011000000E0030400DC030400D8030400D403045B
:1011100000D0030400CC030400C8030300C503038C
:101120000024F404D9201BC40C5C0E9804C4095F8D
:101130000265077101F405F900FB04B30048048758
:1011400000C10369005803550003034500BE023A7D
:10115000008402310053022A0029022500040220E3
:1011600000E4011C00C8011900AF01170098011428
:101170000084011300710110006101100051010E83
:101180000043010D0036010B002B010B0020010B69
:1011900000150109000C01090003010800FB00080B
:1011A00000F3000800EB000700E4000600DE000684
:1011B00000D8000600D2000600CC000500C70005DC
:1011C00000C2000500BD000400B9000400B5000421
:1011D00000B1000400AD000400A9000400A5000354
:1011E00000A20003009F0004009B0003009800037E
:1011F000009500020093000300900003008D0002A0
:10120000008B0003008800020086000200840003B7
:1012100000810002007F0002007D0002007B0002CE
:1012200000790002007700010076000200740002DD
:101230000072000100710002006F0002006D0001E9
:10124000006C0002006A00010069000200670001F2
:1012500000660001006500010064000200620001F8
:101260000061000100600001005F0002005D0001FC
:10127000005C0001005B0001005A00010059000100
:101280000058000100570001005600010055000100
:1012900000540001005300000053000100520001FF
:1012A0000051000100500001004F0001004E0000FD
:1012B000004E0001004D0001004C0001004B0000F9
:1012C000004B0001004A00010049000100480000F5
:1012D00000480001004700010046000000460001F0
:1012E00000450000004500010044000100430000EB
:1012F00000430001004200000042000100410000E4
:101300000041000100400001003F0000003F0001DB
:10131000003E0000003E0001003D0000003D0001D5
:10132000003C0000003C0000003C0001003B0000CD
:10133000003B0001003A0000003A000100390000C3
:1013400000390001003800000038000000380001BA
:1013500000370000003700010036000000360000B2
:1013600000360001003500000035000000350001A6
:10137000003400000034000000340001003300009D
:101380000033000000330001003200000032000092
:101390000032000100310000003100000031000186
:1013A000003000000030000000300001002F00007D
:1013B000002F0000002F0000002F0001002E000071
:1013C000002E0000002E0001002D0000002D000066
:1013D000002D0000002D0001002C0000002C00005A
:1013E000002C0000002C0001002B0000002B00004E
:1013F000002B0000002B0001002A0000002A000042
:10140000002A0000002A0001002900000029000035
:101410000029000000290000002900010028000028
:10142000002800000028000000280000002800011B
:101430000027000000270000002700000027000010
:101440000027000100260000002600000026000002
:1014500000260000002600010025000000250000F5
:1014600000250000002500000025000000250001E7
:1014700000240000002400000024000000240000DC
:1014800000240001002300000023000000230000CE
:1014900000230000002300000023000000230001BF
:1014A00000220000002200000022000000220000B4
:1014B00000220000002200010021000000210000A5
:1014C0000021000000210000002100000021000098
:1014D000002100010020000000200000002000008A
:1014E000002000000020000000200000002000007C
:1014F00000200001001F0000001F0000001F00006E
:10150000001F0000001F0000001F0000001F00015E
:10151000001E0000001E0000001E0000001E000053
:10152000002028002920453A0020280029205A3A86
:10153000002028002920593A0020280020583A008D
:10154000537465707065722063757272656E742075
:1015500076616C75657320696E20252028416D7059
:1015600073293A0A00546865726D616C2052756E79
:101570006177617900544845524D414C2052554E97
:1015800041574159004B494C4C45442E2000202DD9
:1015900020496E76616C6964206578747275646543
:1015A00072206E756D62657220210A004865617453
:1015B000696E67206661696C65640048656174697D
:1015C0006E67206661696C65640048656174696E68
:1015D00067206661696C65640048656174696E675F
:1015E000206661696C6564004D494E54454D50203C
:1015F000747269676765726564004572723A204D5E
:10160000494E54454D5020424544004572723A209F
:101610004D494E54454D50004D415854454D502074
:10162000747269676765726564004572723A204D2D
:10163000415854454D5020424544004572723A206D
:101640004D415854454D50006265640A002C20738A
:10165000797374656D2073746F70706564212048B0
:1016600065617465725F49443A2000236465666968
:101670006E65202044454641554C545F4B64200024
:1016800023646566696E65202044454641554C5487
:101690005F4B69200023646566696E6520204445C0
:1016A0004641554C545F4B702000504944204175D1
:1016B000746F74756E652066696E69736865642100
:1016C0002050757420746865206C617374204B70B1
:1016D0002C204B6920616E64204B6420636F6E7315
:1016E00074616E74732066726F6D2062656C6F77C3
:1016F00020696E746F20436F6E66696775726174DE
:10170000696F6E2E680A00504944204175746F74E9
:10171000756E65206661696C6564212074696D650C
:101720006F75740A00504944204175746F74756E6A
:1017300065206661696C6564212054656D70657211
:10174000617475726520746F6F20686967680A003C
:10175000204B643A2000204B693A2000204B703A1D
:1017600020000A20436C6173736963205049442050
:101770000A002054753A2000204B753A2000206D55
:1017800061783A2000206D696E3A200020643A208A
:101790000020626961733A20001000AD0330016AD5
:1017A0000150022B0170030A019004F500B005E519
:1017B00000D006D800F007CE001009C500300ABEE0
:1017C00000500BB700700CB100900DAB00B00EA62E
:1017D00000D00FA200F0109D001012990030139558
:1017E000005014920070158E0090168B00B0178771
:1017F00000D0188400F0198100101B7E00301C7B83
:1018000000501D7900701E7600901F7300B020708C
:1018100000D0216E00F0226B001024690030256694
:1018200000502663007027610090285E00B0295C9C
:1018300000D02A5900F02B5600102D5400302E51A4
:1018400000502F4E0070304B0090314800B03245B0
:1018500000D0334200F0343E0010363B00303737C2
:10186000005038330070392E00903A2900B03B23E5
:1018700000D03C1B00F03D1100103F0100F03F0084
:10188000001000C90210012C014001220170011852
:1018900001B0010E01F00104015002FA00B002F0A3
:1018A000003003E600D003DC009004D2007005C8CD
:1018B00000A006BE000008B400B009AA00D00BA02A
:1018C00000600E960060118C0000158200201978CF
:1018D00000C01D6E00A0226400B0275A00902C505A
:1018E0000000314600E0343C0010383200903A28C5
:1018F00000603C1E00A03D1400803E0A00203F0016
:1019000000012902290429082910292029402980B9
:1019100029012C022C012602260426082610262046
:101920002640268026402C802C01230223042308F5
:101930002310232023402380230120022004200899
:10194000201020202040208020102C202C012F024D
:101950002F042F082F102F202F402F802F7EFE7E48
:10196000FD7EFB7EF77EEF7EDF7EBF7E7F00010087
:10197000001E1A1200020000DB194300030000D70A
:10198000190401030904BD191802030904A5191655
:101990000303090497190C0C03310032003300349F
:1019A000003500000016035500530042002000538C
:1019B0000065007200690061006C000000180354AB
:1019C00000650065006E00730079006400750069B1
:1019D000006E006F000000040309040902430002C6
:1019E0000100C032090400000102020100052400C8
:1019F000100105240100010424020605240600014B
:101A00000705820308004009040100020A000000E3
:101A10000705030240000007058402400000120190
:101A2000000202000020C01683040001010203012D
:101A30000001C102018036018136C732F66B2F8565
:101A4000948F11241FBECFEFD0E2DEBFCDBF12E0D6
:101A5000A0E0B1E0EEE7F6E301E00BBF02C00790C3
:101A60000D92A43EB107D9F72CE0A4EEB2E001C07C
:101A70001D92AD3EB207E1F71DE0C1E2DDE004C01A
:101A80002197FE010E94FE93CD31D107C9F70E9434
:101A9000C48D0C943D9B0C940000FC0165917591E4
:101AA000859194910895FB0101900020E9F7319709
:101AB000AF01461B570BDC01ED91FC910280F381D5
:101AC000E02D0994AB01770F660B770B0C94158D05
:101AD0000C94228DCF93DF931F92CDB7DEB769832D
:101AE000DC01ED91FC910280F381E02D41E050E0BA
:101AF000BE016F5F7F4F09950F90DF91CF910895E1
:101B00002F923F924F925F926F927F928F929F920D
:101B1000AF92BF92CF92DF92EF92FF920F931F93FB
:101B2000CF93DF93CDB7DEB72C970FB6F894DEBF17
:101B30000FBECDBFF82EE62ED42E322E90E09A871F
:101B40008987A62FB0E0BC87AB878C01000F111FDF
:101B5000080F191FFD01E00FF11FEE0FFF1FEE0F21
:101B6000FF1FE158FC4F60817181828193819B014D
:101B7000AC010E946E93882309F441C16AE081EEB2
:101B80009CE0A8DFFD0C6E2D630D8F2D90E0DC0135
:101B9000AA0FBB1FA80FB91F8B859C858A0F9B1F9F
:101BA000FC01EE0FFF1FEE0FFF1FE158FC4F90806E
:101BB000A180B280C380FD0C8F2D90E09C01220F8C
:101BC000331F280F391F8B859C85820F931FFC01C3
:101BD000EE0FFF1FEE0FFF1FE158FC4FD080E1809A
:101BE000F2808380862F90E0F801E80FF91FEE0F56
:101BF000FF1FEE0FFF1FE158FC4F70806180528085
:101C00004380630D462F50E0F801E40FF51FEE0FFF
:101C1000FF1FEE0FFF1FE158FC4F10810181328042
:101C20002380A80FB91FAA0FBB1FAA0FBB1FA15863
:101C3000BC4FEC91E9831196FC911197FA831296AF
:101C40008C9112978B8313969C919C83240F351F44
:101C5000220F331F220F331FD901A158BC4FEC9123
:101C6000ED831196FC911197FE8312968C91129739
:101C70008F8313969C9198872D2D3E2D4F2D582D97
:101C80006D2D7E2D8F2D982D0E946E93882321F02F
:101C9000D12CE12CF12C812C292D3A2D4B2D5C2DB2
:101CA000692D7A2D8B2D9C2D0E946E93882319F01F
:101CB0009D2C5701C82C212F302F432D522D612FE1
:101CC000702F832D922D0E946E93882321F010E0B7
:101CD00000E0312C212C272D362D452D542D672D3C
:101CE000762D852D942D0E946E93882311F0380156
:101CF00021012D813E814F8158856D817E818F81AB
:101D000098850E946E93882321F01D821E821F8277
:101D1000188629813A814B815C8169817A818B8126
:101D20009C810E946E93882341F0AD81A983BE817E
:101D3000BA83EF81EB83F885FC8329853A85220FEE
:101D4000331F89859A85280F391FAB85BC852A0FDB
:101D50003B1F220F331F220F331FF901E158FC4FA5
:101D6000FA87E987292D3A2D4B2D5C2D692D7A2D87
:101D70008B2D9C2D0E94A98F2D2D3E2D4F2D582D42
:101D80000E94A88F6B017C01272D362D452D542DE7
:101D9000672D762D852D942D0E94A98F212F302F10
:101DA000432D522D0E94A88F9B01AC01C701B601A3
:101DB0000E94A98F6B017C0129813A814B815C8152
:101DC00069817A818B819C810E94A98F2D813E81BE
:101DD0004F8158850E94A88F9B01AC01C701B601B5
:101DE0000E94A98F20E030E040E450E40E948990F6
:101DF000A985BA856D937D938D939C9313972C96AB
:101E00000FB6F894DEBF0FBECDBFDF91CF911F910B
:101E10000F91FF90EF90DF90CF90BF90AF909F9089
:101E20008F907F906F905F904F903F902F9008958C
:101E3000CF93DF93E7E3F7E06491EF012196662308
:101E400029F081EE9CE046DEFE01F6CF4091B80518
:101E50005091B9056091BA057091BB0522E030E060
:101E600081EE9CE035DEE3E3F7E06491EF0121963B
:101E7000662329F081EE9CE02DDEFE01F6CF409135
:101E8000BC055091BD056091BE057091BF0522E073
:101E900030E081EE9CE01CDEEFE2F7E06491EF01C0
:101EA0002196662329F081EE9CE014DEFE01F6CF38
:101EB0004091C0055091C1056091C2057091C30564
:101EC00022E030E081EE9CE003DEEBE2F7E064919B
:101ED000EF012196662329F081EE9CE0FBDDFE01F7
:101EE000F6CF4091C4055091C5056091C60570912B
:101EF000C70522E030E081EE9CE0EADDDF91CF9182
:101F00000C94C174AF92BF92CF92DF92EF92FF9286
:101F10000F931F93CF93DF93EDE1F6E06491EF0110
:101F20002196662329F081EE9CE0D4DDFE01F6CFF8
:101F3000C0E0D0E010E060E281EE9CE0CBDD1F5F0E
:101F40001630C9F7BE0181EE9CE0BCDD2196C3309E
:101F5000D10581F76AE081EE9CE0BCDD8FE7A82E19
:101F600083E0B82EC0E0D0E060E281EE9CE0B2DD1C
:101F7000BE0181EE9CE0A6DD00E010E060E281EEB3
:101F80009CE0A8DDF501E00FF11FC080D180E28068
:101F9000F380A7019601C701B6010E946E938111DB
:101FA00015C020E030E0A901C701B6010E9485926A
:101FB00087FD04C06BE281EE9CE08CDD23E030E025
:101FC000B701A60181EE9CE083DD0BC0F12C60E23D
:101FD00081EE9CE07FDDF39486E0F81611F06DE36E
:101FE000F7CF045F1F4F0432110541F66AE081EE1E
:101FF0009CE070DD219684E0A80EB11CC330D105B1
:1020000009F0B2CF6AE081EE9CE0DF91CF911F91A1
:102010000F91FF90EF90DF90CF90BF90AF905ACD8F
:102020000FB6F8948091D60C9091D70CA091D80C53
:10203000B091D90C0FBE8093CA039093CB03A093A9
:10204000CC03B093CD03089580913101909132017A
:10205000A0913301B091340180930B0490930C0450
:10206000A0930D04B0930E0480912F019091300144
:1020700090930A048093090484E690E090933001E1
:1020800080932F01CDCF80910B0490910C04A091EF
:102090000D04B0910E048093310190933201A0930E
:1020A0003301B09334018091090490910A04909314
:1020B000300180932F01B4CF4F925F926F927F9245
:1020C000AF92BF92CF92DF92EF92FF92CF93DF93C6
:1020D000EB01FC0160817181828193812CE3C22E2E
:1020E000D12CE12CF12CA70196010E94C093B62EB1
:1020F000A72ECA01B901A70196010E94C0936B01E6
:102100007C01CA01B90128E130E040E050E00E94C2
:10211000C0932B013C01C9016DE671E00E949993C7
:1021200061157105D9F0AF92BF92DF92CF925F92A5
:102130004F929F938F937F936F938AEE95E09F9337
:102140008F93DF93CF930E945B988DB79EB70E96C7
:102150000FB6F8949EBF0FBE8DBF61C00097C9F047
:10216000AF92BF92DF92CF925F924F929F938F93E5
:102170008AED95E09F938F93DF93CF930E945B98B6
:10218000EDB7FEB73C960FB6F894FEBF0FBEEDBF9D
:1021900046C04114510461047104B9F0AF92BF927A
:1021A000DF92CF925F924F928EEC95E09F938F9348
:1021B000DF93CF930E945B988DB79EB70A960FB6B8
:1021C000F8949EBF0FBE8DBF2AC0C114D104E10494
:1021D000F104A9F0AF92BF92DF92CF9286EC95E026
:1021E0009F938F93DF93CF930E945B98EDB7FEB7D9
:1021F00038960FB6F894FEBF0FBEEDBF10C0AF9279
:10220000BF9282EC95E09F938F93DF93CF930E94D0
:102210005B980F900F900F900F900F900F90DF91A1
:10222000CF91FF90EF90DF90CF90BF90AF907F90D5
:102230006F905F904F9008950F931F93CF93DF930C
:10224000CDB7DEB72C970FB6F894DEBF0FBECDBF6B
:10225000E8EBF5E080859185A285B38544815581C1
:1022600066817781008111812281338109871A87F4
:102270002B873C874D835E836F83788789839A831E
:10228000AB83BC83AE014F5F5F4FBE016B5F7F4F7F
:10229000CE0109960E94375D24EC35E0AE014F5F18
:1022A0005F4FBE016B5F7F4FCE0109960E94D669DA
:1022B0002C960FB6F894DEBF0FBECDBFDF91CF9145
:1022C0001F910F9108958F929F92AF92BF92CF92DC
:1022D000DF92EF92FF920F931F93CF93DF93CDB7CF
:1022E000DEB760970FB6F894DEBF0FBECDBFB22E3B
:1022F000D32E7C01EE0CFF1CEE0CFF1CC701885492
:102300009A4F4C01FC0110821182128213824D8778
:102310005E876F87788B90DF4D855E856F857889C6
:10232000F4014083518362837383C090D10320E022
:1023300030E0A901B8018B2D9D2D0E948290811162
:1023400008C0F701E65BFD4F9080A180B280D3808A
:1023500002C0902EA12E8091C0059091C105A09140
:10236000C205B091C3054091BC055091BD05609177
:10237000BE057091BF050091B8051091B905209177
:10238000BA053091BB0509871A872B873C874D8397
:102390005E836F83788789839A83AB83BC83AE0126
:1023A0004F5F5F4FBE016B5F7F4FCE0109960E946A
:1023B000375DE92CFA2C0B2D1D2D24EC35E0AE01F8
:1023C0004F5F5F4FBE016B5F7F4FCE0109960E944A
:1023D000885E0E94FB731092D80560960FB6F89441
:1023E000DEBF0FBECDBFDF91CF911F910F91FF9048
:1023F000EF90DF90CF90BF90AF909F908F90089517
:10240000CF93DF9300D0CDB7DEB72091D30C3091BE
:10241000D40CCE0101962115310519F48D5E9C4036
:1024200002C0821B930B9A83898389819A810F90C2
:102430000F90DF91CF910895FF920F931F93CF9349
:10244000DF93FC0120812B3319F1D0919905D43011
:10245000F8F4F62EBC01C09197050C2F10E0F0E6C1
:10246000CF9FC0011124895E9B4F0E944698F801BE
:10247000E159FC4FF082CF5FC43018F4C093970548
:1024800002C010929705DF5FD093990581E001C0EB
:1024900080E0DF91CF911F910F91FF900895EF920F
:1024A000FF921F93CF93DF937C01C6DF182F882301
:1024B000C9F0E2E0FDE06491EF012196662329F086
:1024C00081EE9CE007DBFE01F6CFB70187E399E0E0
:1024D0000E94FA6B62E281EE9CE0FCDA6AE081EE37
:1024E0009CE0F8DA812FDF91CF911F91FF90EF9060
:1024F0000895DF92EF92FF920F931F93CF93DF9394
:10250000CDB7DEB76E970FB6F894DEBF0FBECDBF66
:1025100060910F04709110046115710549F14DE14E
:1025200050E0CE0101967C010E9409981E8EF701B1
:102530008F010E191F09D190DD2019F09AE0D912F0
:10254000F7CFF701E00FF11F108260E0C701A7DFAE
:10255000882371F0DD20A9F00F5F1F4F80910F04D9
:1025600090911004080F191F1093100400930F048A
:1025700081E020910F0430911004232B29F480E096
:1025800003C000E010E0F0CF6E960FB6F894DEBF07
:102590000FBECDBFDF91CF911F910F91FF90EF90B4
:1025A000DF900895E0911104F0911204818121E0FF
:1025B00030E0803239F42F5F3F4FDF01A20FB31FAD
:1025C0008C91F7CF8D3211F08B3231F42F5F3F4F6A
:1025D000DF01A20FB31F8C918E3219F4E20FF31FAB
:1025E000818190ED980F81E09A3008F080E00895A5
:1025F0000F931F93CF93DF93C0911104D0911204D6
:1026000065E470E0CE010E9432988C01CE01019603
:102610000115110541F460E070E0DF91CF911F9149
:102620000F910C942694F801108260E070E00E94F3
:10263000269425E4F8012083DF91CF911F910F911B
:10264000089580911104909112044AE050E060E0F6
:1026500070E001960C94B49680911104909112044C
:102660004AE050E060E070E001960E948C95CB015A
:10267000089580911104909112044AE050E060E0C6
:1026800070E001960E94B496CB01089580911104E8
:10269000909112044AE050E060E070E001960E94E0
:1026A0008C9597FD1EC080911104909112044AE010
:1026B00050E060E070E001960E948C956F3F7105DC
:1026C0008105910509F07CF4809111049091120428
:1026D0004AE050E060E070E001960E948C95862F01
:1026E000089580E008958FEF08955CDF882331F02E
:1026F000CDDF91E0811103C090E001C091E0892F0E
:102700000895AACFA9CF682F880F770B8091130463
:10271000909114040E9432989C019093120480932B
:10272000110481E0232B09F480E00895EF92FF92D9
:102730001F93CF93DF937C0184E5E5DF182F882377
:1027400041F1A4DF882301F1E2E0FDE06491EF01B3
:102750002196662329F081EE9CE0BCD9FE01F6CFDC
:102760006DE481EE9CE0B6D9B70181EE9CE0AAD978
:102770008DDF682F70E089EF97E00E94226C6AE09D
:1027800081EE9CE0A7D909C081DF8093B70310E0F8
:1027900004C08091D1038093B703812FDF91CF9143
:1027A0001F91FF90EF900895CF92DF92EF92FF92EA
:1027B0000F931F93CF93DF93EC01CC0FDD1FCC0F52
:1027C000DD1FFE01E451FC4F20E030E0A9016081F3
:1027D0007181828193810E94A98FFE01E850FC4F94
:1027E00020813181428153810E94A98F6B017C013C
:1027F000FE01E052FC4F6083718382839383CE019C
:102800008958964F4AD98E010C521C4FA701960148
:102810000E94A98FF8016083718382839383CE0124
:102820008559964F3AD9C85EDE4FA70196010E949E
:10283000A98F688379838A839B83DF91CF911F91CE
:102840000F91FF90EF90DF90CF900895CF92EF928D
:10285000FF920F931F93CF93DF93CDB7DEB72C97E3
:102860000FB6F894DEBF0FBECDBFC090D103E8EB2A
:10287000F5E080859185A285B38544815581668187
:102880007781008111812281338109871A872B8703
:102890003C874D835E836F83788789839A83AB837C
:1028A000BC83AE014F5F5F4FBE016B5F7F4FCE01B8
:1028B00009960E94375DE0903101F090320100915D
:1028C00033011091340124EC35E0AE014F5F5F4FCE
:1028D000BE016B5F7F4FCE0109960E94885E2C96E9
:1028E0000FB6F894DEBF0FBECDBFDF91CF911F9121
:1028F0000F91FF90EF90CF9008958F929F92AF929B
:10290000BF92CF92EF92FF920F931F93CF93DF93DB
:10291000CDB7DEB72C970FB6F894DEBF0FBECDBF94
:102920004B015C01C090D103E8EAF5E08085918518
:10293000A285B385448155816681778100811181AB
:102940002281338109871A872B873C874D835E83D9
:102950006F83788789839A83AB83BC83AE014F5F93
:102960005F4FBE016B5F7F4FCE0109960E94375DBE
:102970008501740124EB35E0AE014F5F5F4FBE016E
:102980006B5F7F4FCE0109960E94885E2C960FB632
:10299000F894DEBF0FBECDBFDF91CF911F910F9195
:1029A000FF90EF90CF90BF90AF909F908F90089541
:1029B00080E1E8EAF5E0A8EBB5E001900D928A9598
:1029C000E1F708952F923F924F925F926F927F921C
:1029D0008F929F92AF92BF92CF92DF92EF92FF922F
:1029E0000F931F93CF93DF9300D000D0CDB7DEB706
:1029F0005C014B018A013C832B8340903101509054
:102A000032016090330170903401FA01C080D180AE
:102A1000E280F380A70196016091C0057091C10525
:102A20008091C2059091C3050E94829087FF2FC0BC
:102A3000EB81FC8120803180F281F983EB81FC8184
:102A4000F381FA8320E030E0A901B10189819F2F51
:102A50000E948290882319F039812A8104C0212C98
:102A6000312C30E820E4C101A32FB22F8093310133
:102A700090933201A0933301B0933401C092C0050A
:102A8000D092C105E092C205F092C305DFDEEB8172
:102A9000FC81C080D180E280F38020E030E0A90199
:102AA000C701B6010E948290811108C0C0900F0139
:102AB000D0901001E0901101F0901201C09231010C
:102AC000D0923201E0923301F0923401F50180811D
:102AD0009181A281B3818093B8059093B905A093A9
:102AE000BA05B093BB05F40180819181A281B381C5
:102AF0008093BC059093BD05A093BE05B093BF0520
:102B0000A5DEF801C080D180E280F380A7019601A4
:102B10006091C0057091C1058091C2059091C30577
:102B20000E948592181664F5EB81FC81B0800181CA
:102B30001281A38020E030E0A9016B2D702F812F3E
:102B40009A2D0E948290882311F02A2D04C0B12C66
:102B500000E010E820E48B2D902FA12FB22F80935E
:102B6000310190933201A0933301B0933401C092AC
:102B7000C005D092C105E092C205F092C30566DEA1
:102B80000E94FB73409231015092320160923301F6
:102B9000709234010F900F900F900F90DF91CF91B2
:102BA0001F910F91FF90EF90DF90CF90BF90AF906B
:102BB0009F908F907F906F905F904F903F902F905D
:102BC00008959B01AC016CEB75E088EB95E0FACEC3
:102BD0009A0140EC55E0F6CE8F929F92AF92BF9251
:102BE000CF92DF92EF92FF92CF93DF93CDB7DEB714
:102BF00028970FB6F894DEBF0FBECDBF2091E80333
:102C00003091E9034091EA035091EB030E94A98FB0
:102C10006B017C016D837E838F8398878090B303E3
:102C20009090B403A090B503B090B60320E030E0DC
:102C3000A901C501B4010E94829087FF0AC0A501C5
:102C40009401C701B6010E94A88F6D837E838F8394
:102C500098872091C0053091C1054091C2055091DF
:102C6000C3056D817E818F8198850E94859218169B
:102C700054F419821A821B821C82BE016F5F7F4F3F
:102C8000CE0105969EDF28960FB6F894DEBF0FBEE4
:102C9000CDBFDF91CF91FF90EF90DF90CF90BF90AD
:102CA000AF909F908F900895EF92FF920F931F9394
:102CB000CF93DF93882329F01091A50581E0182791
:102CC00001C010E0662329F0D091A60581E0D82745
:102CD00001C0D0E0442329F0C091A70581E0C827B6
:102CE00001C0C0E0111105C0D11103C0CC2309F40B
:102CF0005CC0E2E0FDE064917F018FEFE81AF80A22
:102D0000662331F081EE9CE00E946A0DF701F3CF5B
:102D1000E3EFF7E064917F018FEFE81AF80A66238A
:102D200031F081EE9CE00E946A0DF701F3CF112390
:102D300071F0E1EFF7E064918F010F5F1F4F6623A1
:102D400031F081EE9CE00E946A0DF801F4CFDD23A2
:102D500071F0EFEEF7E064918F010F5F1F4F662374
:102D600031F081EE9CE00E946A0DF801F4CFC111B0
:102D700003C0E5EEF7E00DC0EDEEF7E06491EF0182
:102D800021966623B1F381EE9CE00E946A0DFE015C
:102D9000F5CF6491EF012196662331F081EE9CE03E
:102DA0000E946A0DFE01F5CFC1E08C2FDF91CF911B
:102DB0001F910F91FF90EF9008951F93CF93DF9392
:102DC000CDB7DEB72C970FB6F894DEBF0FBECDBFE0
:102DD0009091D505981779F1182F60E070E080EA9E
:102DE00090E4FADE8091B8059091B905A091BA05FA
:102DF000B091BB0589879A87AB87BC878091BC055A
:102E00009091BD05A091BE05B091BF058D839E83B5
:102E1000AF83B88719821A821B821C829E012F5FA2
:102E20003F4F40EC55E0BE016B5F7F4FCE010996EE
:102E3000C9DD1093D50580E02C960FB6F894DEBF5F
:102E40000FBECDBFDF91CF911F9108954F925F923A
:102E50006F927F928F929F92AF92BF92CF92DF92AA
:102E6000EF92FF920F931F93CF93DF9300D000D088
:102E700000D0CDB7DEB77C01FC01EC5BF64F1491BE
:102E800082E0E816F10421F481E097DF811123C18B
:102E90006701CC0CDD1CCC0CDD1CC6018D5A964F95
:102EA0000E944D0D4B015C01612F110F770B880BB8
:102EB000990B0E9424912B013C0120E030E040EC72
:102EC0005FE3C501B4010E94C092A30192010E9478
:102ED000C092AB01BC0100E010E09801C701F3D93A
:102EE00092E0E916F10479F48FE499E00E944D0D27
:102EF00020E030E040EA50E40E94829087FD09C063
:102F00008FE499E003C0C601895B964F0E944D0D86
:102F100004C060E070E080EA90E49B01AC01C30172
:102F2000B2010E94C0924B015C0120E030E0A90197
:102F30000E948290882309F45CC000E010E09801B0
:102F4000B501A4017058C701BED986E0E9E7F1E0F8
:102F5000DE01119601900D928A95E1F7F701EE0FCF
:102F6000FF1F81E090E08C0F9D1FE80FF91F80810B
:102F7000918118161906F4F0E2E0FDE064918F01EA
:102F80000F5F1F4F662331F081EE9CE00E946A0DB7
:102F9000F801F4CFEDE5F7E064918F010F5F1F4F6B
:102FA000662331F081EE9CE00E946A0DF801F4CFB7
:102FB0008AE090E0BC01990F880B990B0E94249144
:102FC0009B01AC01F601E65BFD4F6081718182815E
:102FD00093810E9489902B013C01A5019401C501B8
:102FE000B4010E94A98FAB01BC0193018201C7010A
:102FF0006AD981E0F701EB55FA4F8083F701EE556E
:10300000FA4F8083F601E850FC4F10821182128241
:103010001382C701C9DBC601815A964F0E944D0D2C
:10302000860108541A4FF601E052FC4F208131818D
:10303000428153810E94A98FF8016083718382834A
:103040009383F2E0EF16F104D1F42091B3033091B1
:10305000B4034091B5035091B6036091C0057091DF
:10306000C1058091C2059091C3050E94A88F60930D
:10307000C0057093C1058093C2059093C305DCD849
:10308000F601E855FA4FD601A854BA4F8D919D919B
:103090000D90BC91A02D80839183A283B38382E0A5
:1030A000E816F104C1F480E026960FB6F894DEBF6E
:1030B0000FBECDBFDF91CF911F910F91FF90EF9089
:1030C000DF90CF90BF90AF909F908F907F906F9048
:1030D0005F904F9072CE26960FB6F894DEBF0FBE6B
:1030E000CDBFDF91CF911F910F91FF90EF90DF90B7
:1030F000CF90BF90AF909F908F907F906F905F9098
:103100004F900895CF92DF92EF92FF926091AF03BC
:103110007091B003072E000C880B990B0E9424912C
:103120006B017C012DEB37E346E855EB0E9485925D
:1031300087FD0AC02DEB37E346E855E3C701B6012A
:103140000E94829018164CF4A701960160E070E08E
:1031500080E89FE30E94899003C060E070E0CB01AB
:103160006093A3037093A4038093A5039093A60395
:103170006091B1037091B203072E000C880B990B7C
:103180000E9424916B017C012DEB37E346E855EB5F
:103190000E94859287FD0AC02DEB37E346E855E390
:1031A000C701B6010E94829018164CF4A70196013F
:1031B00060E070E080E89FE30E94899003C060E0D7
:1031C00070E0CB016093A7037093A8038093A903D9
:1031D0009093AA03FF90EF90DF90CF900895BF9255
:1031E000CF92DF92EF92FF920F931F93CF93DF93D3
:1031F00088EAE82E85E0F82E08EB15E095E0C92E68
:1032000094E0D92EC6E4D2E0BC2E84E0B80E8991B9
:103210007ADA8823D1F0ECD9F6012081211104C09B
:103220002091D003222331F0F801208131814281A5
:10323000538103C020E030E0A9010E94A98FF7016B
:1032400060837183828393830AC0F80180819181B6
:10325000A281B381F70180839183A283B383F4E0D9
:10326000EF0EF11C0C5F1F4F8FEFC81AD80ABC126B
:10327000CECF86E448DA8823B9F0BAD920E030E02E
:10328000A9010E94859218167CF4B2D920E030E0A2
:1032900040E752E40E9489906093310170933201BB
:1032A0008093330190933401DF91CF911F910F915F
:1032B000FF90EF90DF90CF90BF900895CF93DF9372
:1032C000E2E0FDE06491EF012196662331F081EEAA
:1032D0009CE00E946A0DFE01F5CF6091150470918B
:1032E000160480EC97E00E94FA6B62E281EE9CE0AB
:1032F0000E946A0D6AE081EE9CE0DF91CF910C9410
:103300006A0DCF92DF92EF92FF920F931F93CF93AC
:10331000DF930FB6F894C090D60CD090D70CE09005
:10332000D80CF090D90C0FBE80910E01882309F4BF
:1033300072C080916D0390916E03009709F46BC089
:103340004091690350916A0360916B0370916C0323
:1033500097018601041B150B260B370B37FD6EC03A
:103360008330910531F134F401970CF454C0E2E05C
:10337000FDE006C0049709F04EC0E2E0FDE033C076
:103380006491EF012196662331F081EE9CE00E946A
:103390006A0DFE01F5CFEEEAF7E06491EF012196A8
:1033A000662309F438C081EE9CE00E946A0DFE019C
:1033B000F4CFE2E0FDE06491EF012196662331F065
:1033C00081EE9CE00E946A0DFE01F5CFE7E9F7E08F
:1033D0006491EF0121966623F1F081EE9CE00E945A
:1033E0006A0DFE01F5CF6491EF012196662331F05D
:1033F00081EE9CE00E946A0DFE01F5CFEFE7F7E059
:103400006491EF012196662331F081EE9CE00E94E9
:103410006A0DFE01F5CF20910E0130E0A8EEB3E079
:103420000E940794C60ED71EE81EF91EC0926903BB
:10343000D0926A03E0926B03F0926C03DF91CF911C
:103440001F910F91FF90EF90DF90CF9008954F92D2
:103450005F926F927F928F929F92AF92BF92CF9224
:10346000DF92EF92FF921F93CF93DF9300D000D0B3
:10347000CDB7DEB72C01762E2091E0033091E10329
:103480004091E2035091E303DC016D917D918D91B8
:103490009C910E94A88F4B015C012091E403309124
:1034A000E5034091E6035091E703F20164817581E1
:1034B000868197810E94A88F6B017C017720A1F003
:1034C00020E030E040EA51E4C501B4010E94A88F39
:1034D0004B015C0120E030E040E251E4C701B6015D
:1034E0000E94A88F6B017C01D20118968D919D914D
:1034F0000D90BC91A02D89839A83AB83BC834090AF
:10350000E8035090E9036090EA037090EB0327E131
:1035100037EB41ED58EBC501B4010E94859287FD60
:103520003BC027E030E04AE753E4C501B4010E9404
:10353000829018168CF127E137EB41ED58EBC7016B
:10354000B6010E94859287FD27C027E030E04AE15E
:1035500053E4C701B6010E9482901816ECF0A30153
:10356000920169817A818B819C810E94A88F6B0175
:103570007C0127E137EB41ED58EB0E94859287FDF6
:103580000BC011E027E030E040E753E4C701B6018B
:103590000E94829018160CF410E0812F0F900F906B
:1035A0000F900F90DF91CF911F91FF90EF90DF90E0
:1035B000CF90BF90AF909F908F907F906F905F90D3
:1035C0004F9008958F929F92AF92BF92CF92DF92C9
:1035D000EF92FF920F931F93CF93DF9300D000D011
:1035E000CDB7DEB78091A205811103C0E2E0FDE016
:1035F00005C08091A3058823C9F31BC064918F0186
:103600000F5F1F4F662331F081EE9CE00E946A0D30
:10361000F801F4CFECE4F7E064918F010F5F1F4FE6
:10362000662309F499C081EE9CE00E946A0DF801BE
:10363000F3CF0E941C1120E030E04AEF52E4609189
:10364000E0037091E1038091E2039091E3030E9413
:10365000A98F4B015C016093A8057093A905809325
:10366000AA059093AB0520E030E04AE952E460916E
:10367000E4037091E5038091E6039091E7030E94D3
:10368000A98F6B017C016093AC057093AD058093AD
:10369000AE059093AF058091C0059091C105A091B2
:1036A000C205B091C3058093B0059093B105A09376
:1036B000B205B093B30561E088EA95E0C8DE8111F8
:1036C0001CC0E2E0FDE064918F010F5F1F4F662395
:1036D00031F081EE9CE00E946A0DF801F4CFEAE33C
:1036E000F7E064918F010F5F1F4F6623A9F181EE10
:1036F0009CE00E946A0DF801F4CF20E030E040EA3F
:1037000051E4C501B4010E94A88F6093A80570938D
:10371000A9058093AA059093AB0520E030E040E234
:1037200051E4C701B6010E94A88F6093AC05709365
:10373000AD058093AE059093AF0519821A821B8266
:103740001C82AE014F5F5F4F6CEA75E088EA95E03E
:103750003FDA82E090E07ADB0F900F900F900F90AD
:10376000DF91CF911F910F91FF90EF90DF90CF905D
:10377000BF90AF909F908F9008950F931F93CF931A
:10378000DF938C01E3E2F7E06491EF012196662379
:1037900031F081EE9CE00E946A0DFE01F5CFF80148
:1037A0006491EF012196662331F081EE9CE00E9446
:1037B0006A0DFE01F5CFEAE0F7E06491EF01219692
:1037C000662331F081EE9CE00E946A0DFE01F5CF88
:1037D000DF91CF911F910F9108958F929F92AF9299
:1037E000BF92CF92DF92EF92FF920F931F93CF93EE
:1037F000DF9300D000D0CDB7DEB785E40E948313FD
:10380000D82E811102C00E94FB7386E4A82E82E0AC
:10381000B82E98EFE92E93E0F92E08EB15E0812CF5
:10382000912CC12CF50181915F010E9483138823A3
:1038300069F1F801208131814281538129833A83E2
:103840004B835C830E94F812F8016083718382834A
:10385000938329813A814B815C81F3E08F16910437
:10386000A9F00E94A88F9B01AC01F70160817181D2
:10387000828193810E94A98FF70160837183828383
:103880009383C4010E94D413CC24C394FFEF8F1AF6
:103890009F0A84E0E80EF11C0C5F1F4FE4E08E16D7
:1038A000910409F0BFCFCC2019F00E941C1108C070
:1038B000DD2031F064EC75E083E090E00E94CA6A9C
:1038C0000F900F900F900F90DF91CF911F910F915C
:1038D000FF90EF90DF90CF90BF90AF909F908F9030
:1038E0000C94180F0F931F93CF93DF93CDB7DEB7D0
:1038F00069970FB6F894DEBF0FBECDBF88EB93E09B
:103900000E94CC766E8B7F8B888F998FBE016F5F04
:103910007F4FCE0146960E945C10E2E0FDE064918C
:103920008F010F5F1F4F662331F081EE9CE00E94F4
:103930006A0DF801F4CFBE016F5F7F4F8EEF95E007
:103940000E94FA6B6AE081EE9CE00E946A0D699623
:103950000FB6F894DEBF0FBECDBFDF91CF911F91A0
:103960000F91089588E690E00E94961381111FC080
:103970008091C80583FD1BC083E50E9483138823C3
:10398000A1F00E942C1390930B0C80930A0C80E002
:103990000E947D7B0E942C138635910524F488EBD0
:1039A00093E00E9495760E942C130C94B46B0895BA
:1039B000CF93DF93E6E0F7E06491EF012196662371
:1039C00031F081EE9CE00E946A0DFE01F5CF60911E
:1039D000120C7091130C8091140C9091150C0E9494
:1039E000F19081EE9CE00E94620DE3E0F7E06491CB
:1039F000EF012196662331F081EE9CE00E946A0D72
:103A0000FE01F5CF60910A0C70910B0C81EE9CE0E9
:103A10000E94620DEFEFF6E06491EF0121966623BC
:103A200031F081EE9CE00E946A0DFE01F5CF6091BD
:103A30000E0C70910F0C8091100C9091110C0E9443
:103A4000F19081EE9CE00E94620DECEFF6E0649153
:103A5000EF012196662331F081EE9CE00E946A0D11
:103A6000FE01F5CF6091060C7091070C81EE9CE091
:103A70000E94620DE8EFF6E06491EF012196662363
:103A800031F081EE9CE00E946A0DFE01F5CF80913D
:103A9000B70390E00E94EF77BC0181EE9CE00E94AA
:103AA000620DE3EFF6E06491EF012196662331F0B9
:103AB00081EE9CE00E946A0DFE01F5CF8FEF9FEF33
:103AC0000E94EF77BC0181EE9CE0DF91CF910C94D6
:103AD000620DCF93DF9389E690E00E9496138111E7
:103AE00015C0E5E6F5E06491EF012196662331F01B
:103AF00081EE9CE00E946A0DFE01F5CF59DF6AE07D
:103B000081EE9CE0DF91CF910C946A0DDF91CF9113
:103B10000895CF93DF9383E50E948313882329F0D0
:103B20000E943913D82FC92F02C0DFEFC0E080E513
:103B30000E948313882321F00E943913892B61F49A
:103B40002D2F3C2F2F3F310519F010F02FEF30E0D3
:103B50003093D3032093D203DF91CF910895DF9266
:103B6000EF92FF920F931F93CF93DF9383E50E9411
:103B70008313882319F00E94461301C080E08093CC
:103B8000C805E2E0FDE06491EF012196662331F083
:103B900081EE9CE00E946A0DFE01F5CFECEAF5E0B3
:103BA0006491EF012196662331F081EE9CE00E9442
:103BB0006A0DFE01F5CF8091C8058823A9F182EA3C
:103BC000E82E85E0F82E00E010E020E08091C805A6
:103BD00090E0002E02C0959587950A94E2F780FF49
:103BE0001AC0DD24D394D20E222329F06CE281EE98
:103BF0009CE00E946A0DF70185919491FC0164910B
:103C0000EC012196662331F081EE9CE00E946A0D62
:103C1000CE01F4CF2D2D0F5F1F4FF2E0EF0EF11C00
:103C20000530110599F60DC0EEE9F5E06491EF015C
:103C30002196662331F081EE9CE00E946A0DFE0120
:103C4000F5CF6AE081EE9CE0DF91CF911F910F915B
:103C5000FF90EF90DF900C946A0DCF93DF9383E594
:103C60000E948313882351F00E9446138D3308F07D
:103C70008CE380930E01DF91CF910895E2E0FDE0A7
:103C80006491EF012196662331F081EE9CE00E9461
:103C90006A0DFE01F5CF40910E0150E060E070E04A
:103CA00088E695E00E94A16C6AE081EE9CE0DF91DD
:103CB000CF910C946A0D4F925F926F927F92AF9268
:103CC000BF92CF92DF92EF92FF920F931F93CF9309
:103CD00086E4A82E82E0B82E0EE616E0C0E0F501DC
:103CE00081915F010E948313882309F46DC0C33062
:103CF00009F063C00E94F8126B017C0120E030E003
:103D000040EA51E40E94829087FF4EC0A7019601CD
:103D100060917A0670917B0680917C0690917D0679
:103D20000E9489902B013C019B01AC016091260609
:103D30007091270680912806909129060E94C092D2
:103D40006093260670932706809328069093290691
:103D5000A301920160918A0670918B0680918C0676
:103D600090918D060E94C09260938A0670938B0694
:103D700080938C0690938D0660915A0670915B0635
:103D800080915C0690915D060E942291A3019201B0
:103D90000E94C0920E94F69060935A0670935B0650
:103DA00080935C0690935D06C0927A06D0927B0663
:103DB000E0927C06F0927D0607C00E94F812F8019E
:103DC0006083718382839383CF5F0C5F1F4FC43006
:103DD00009F085CFCF911F910F91FF90EF90DF9069
:103DE000CF90BF90AF907F906F905F904F900C946A
:103DF000906B83E50E9483138823E9F00E94F812F8
:103E0000AB01BC01409332065093330660933406F5
:103E10007093350640932A0650932B0660932C0628
:103E200070932D0689E694E00E945F6C6AE081EE53
:103E30009CE00E946A0D80E50E9483138823A9F00C
:103E40000E94F812AB01BC01409332065093330636
:103E500060933406709335068CE494E00E945F6CA6
:103E60006AE081EE9CE00E946A0D82E50E94831365
:103E70008823A9F00E94F812AB01BC0140932E06E2
:103E800050932F0660933006709331068DE294E0D4
:103E90000E945F6C6AE081EE9CE00E946A0D84E5FE
:103EA0000E9483138823A9F00E94F812AB01BC0181
:103EB00040932A0650932B0660932C0670932D0690
:103EC0008FE094E00E945F6C6AE081EE9CE00C94CD
:103ED0006A0D089583E50E948313882351F00E94A0
:103EE000F8126093360670933706809338069093E5
:103EF000390684E50E948313882351F00E94F8124A
:103F0000609316067093170680931806909319060F
:103F100082E40E948313882351F00E94211360934E
:103F20003A0670933B0680933C0690933D0688E5E5
:103F30000E948313882351F00E94F81260931A069E
:103F400070931B0680931C0690931D0689E50E94C2
:103F50008313882351F00E94F81260931E06709319
:103F60001F0680932006909321068AE50E94831302
:103F7000882351F00E94F812609322067093230662
:103F8000809324069093250685E40E94831388235A
:103F900051F00E94F81260932606709327068093D2
:103FA00028069093290608958F929F92AF92BF9210
:103FB000CF92DF92EF92FF920F931F93CF93DF93F5
:103FC00086E4C82E82E0D82E98EBE92E95E0F92EF3
:103FD0000CEE13E0C0E0D0E0F60181916F010E9489
:103FE0008313882309F10E94F8124B015C01F80148
:103FF00020813181428153810E94A88F9B01AC01B5
:10400000F70160817181828193810E94A98FF701FC
:104010006083718382839383F80180829182A2827C
:10402000B382CE010E94D4132196F4E0EF0EF11C6E
:104030000C5F1F4FC330D10579F60E941C11DF9130
:10404000CF911F910F91FF90EF90DF90CF90BF9095
:10405000AF909F908F900C94180FCF93DF93E2E076
:10406000FDE06491EF012196662331F081EE9CE042
:104070000E946A0DFE01F5CF83E50E948313882319
:1040800021F00E94751380932401EFEFF3E0649117
:10409000EF012196662331F081EE9CE00E946A0DCB
:1040A000FE01F5CF80912401811103C0E7EFF3E019
:1040B00002C0EBEFF3E06491EF012196662331F04B
:1040C00081EE9CE00E946A0DFE01F5CFEFEEF3E079
:1040D0006491EF012196662331F081EE9CE00E940D
:1040E0006A0DFE01F5CF4091D4035091D503609144
:1040F000D6037091D7038DEE93E00E945F6C4091E0
:10410000D8035091D9036091DA037091DB038AEEF2
:1041100093E00E945F6C4091DC035091DD0360915D
:10412000DE037091DF0387EE93E00E945F6CEFED9A
:10413000F3E06491EF012196662331F081EE9CE07B
:104140000E946A0DFE01F5CF4091180150911901AE
:1041500060911A0170911B018DED93E00E945F6CDC
:1041600040911C0150911D0160911E0170911F0131
:104170008AED93E00E945F6C4091200150912101F3
:10418000609122017091230187ED93E00E945F6CA2
:104190006AE081EE9CE0DF91CF910C946A0DCF93A1
:1041A000DF9385E40E948313811110C080E50E9493
:1041B0008313882399F00E94F81260936E01709324
:1041C0006F01809370019093710108C00E942C13BD
:1041D000181619065CF7E8E0FDE06EC089E40E945D
:1041E0008313882381F00E94F8122CEA35EC47E211
:1041F0005EE30E94C09260936A0170936B018093AA
:104200006C0190936D0184E40E948313882381F0F4
:104210000E94F8122CEA35EC47E25EE30E94899096
:1042200060936601709367018093680190936901C0
:104230000E94EE77E2E0FDE06491EF0121966623B3
:1042400031F081EE9CE00E946A0DFE01F5CF4091B5
:104250006E0150916F01609170017091710183ED59
:1042600093E00E945F6C2CEA35EC47E25EE36091DC
:104270006A0170916B0180916C0190916D010E94B7
:104280008990AB01BC018FEC93E00E94806C2CEA1A
:1042900035EC47E25EE360916601709167018091C1
:1042A0006801909169010E94C092AB01BC018BEC46
:1042B00093E00E94806C11C06491EF012196662307
:1042C00031F081EE9CE00E946A0DFE01F5CF6AECB0
:1042D00071E081EE9CE00E94530D6AE081EE9CE06B
:1042E000DF91CF910C946A0DCF93DF9383E50E9409
:1042F0008313D82F8823D1F00E942C13BC01990F6F
:10430000880B990B0E942491609362017093630162
:104310008093640190936501C1E020E030E0A90141
:104320000E9482908111C0E0C093F80B80E50E944A
:104330008313C82F8823A9F020E030E0A901609101
:1043400062017091630180916401909165010E9406
:104350008290882319F00E947513C82FC093F80B20
:104360003DC0D1113BC0E2E0FDE06491EF01219638
:10437000662331F081EE9CE00E946A0DFE01F5CFCC
:104380008091F80B811103C06BED71E002C06AE609
:1043900072E088EB93E00E94FA6B20E030E040E0AE
:1043A0005FE360916201709163018091640190917B
:1043B00065010E94A98F0E94F19087EA93E00E9414
:1043C000226CE3EAF3E06491EF012196662331F079
:1043D00081EE9CE00E946A0DFE01F5CFDF91CF9146
:1043E0000895EF92FF920F93CF93DF9385E40E949D
:1043F0008313882321F00E942C13EC0102C0C0E03B
:10440000D0E083E40E948313882321F00E942C13C0
:104410007C0103C085E0E82EF12C85E50E94831322
:10442000082F882319F00E947513082F83E50E9436
:104430008313882319F00E942C1304C0D7FD07C0F2
:1044400086E990E0209729F41092B70302C086E431
:1044500090E010926E0310926D03BC01990F880BCF
:10446000990B0E9424919701AE010E94127C81E079
:1044700090E090936E0380936D03DF91CF910F9145
:10448000FF90EF900895FF920F931F93CF93DF93C8
:1044900089E40E948313F82E882331F00E94F812D9
:1044A0000E94F190C62F01C0C0E08AE40E948313ED
:1044B000082F882331F00E94F8120E94F190D62F25
:1044C00001C0D0E08AE50E948313182F882319F0D9
:1044D0000E94F81203C060E070E0CB01FF2021F0E1
:1044E000002311F0111103C0E8E0FDE035C0C33036
:1044F000C8F4D330B8F42C2FCC0F330BF901EE0FE6
:10450000FF1FE20FF31FED0FF11DD7FDFA95EE0F20
:10451000FF1FEE0FFF1FE158FC4F60837183828302
:10452000938332C0E8E0FDE06491EF0121966111D0
:104530000DC0E7E5F3E06491EF012196662321F1D8
:1045400081EE9CE00E946A0DFE01F5CF81EE9CE0B9
:104550000E946A0DFE01E8CF6491EF012196662367
:1045600031F081EE9CE00E946A0DFE01F5CFE5E39B
:10457000F3E06491EF012196662331F081EE9CE037
:104580000E946A0DFE01F5CFDF91CF911F910F912F
:10459000FF9008952F923F924F925F926F927F9279
:1045A0008F929F92AF92BF92CF92DF92EF92FF9243
:1045B0000F931F93CF93DF9300D000D000D0CDB7DF
:1045C000DEB78CEE282E83E0382E08EB15E085EA66
:1045D00095E09A8389831E821D82E981FA81E55ADA
:1045E000F540FC83EB83E981FA818191FA83E983C9
:1045F000882309F498C0ED81FE81E85EFE4F20819A
:10460000318142815381ED81FE81EC52FC4F60810A
:104610007181828193810E94A98F20E030E040E087
:104620005FE30E94C0929B01AC01F801608171813F
:10463000828193810E94859218163CF48D819E811F
:10464000815A964F0E944D0D03C060E070E0CB018F
:10465000F80180809180A280B380ED81FE81E052DC
:10466000FC4F20813181428153810E94A98F9B019F
:10467000AC01C501B4010E94A88F6B017C0120E050
:1046800030E040EA51EC0E94859287FD30C020E086
:1046900030E040EA51E4C701B6010E94829018164A
:1046A00034F1F1014080518062807380A70196014E
:1046B000C301B2010E94A88F6B017C01A30192018A
:1046C0000E94A88F9B01AC01C501B4010E94A98F73
:1046D000F8016083718382839383F101C082D18268
:1046E000E282F3828B819C810E94D4131CC0E8E09B
:1046F000FDE064918F010F5F1F4F662331F081EE63
:104700009CE00E946A0DF801F4CFE7E1F3E06491C8
:104710008F010F5F1F4F662379F181EE9CE00E94AD
:104720006A0DF801F4CFF4E02F0E311C8D819E81CB
:1047300004969E838D830C5F1F4F0C9709F04DCF1D
:104740000E941C1126960FB6F894DEBF0FBECDBF97
:10475000DF91CF911F910F91FF90EF90DF90CF905D
:10476000BF90AF909F908F907F906F905F904F9091
:104770003F902F900C94180F26960FB6F894DEBF3A
:104780000FBECDBFDF91CF911F910F91FF90EF90A2
:10479000DF90CF90BF90AF909F908F907F906F9061
:1047A0005F904F903F902F900895CF92DF92EF92BD
:1047B000FF92CF93DF93C0900A01D0900B01E0905D
:1047C0000C01F0900D01A7019601C701B6010E94EE
:1047D0006E93811140C0A70196016091B30370915F
:1047E000B4038091B5039091B6030E94A88F6B012A
:1047F0007C0120E030E0A9010E948290882359F1D9
:10480000CFE7D3E0A7019601688179818A819B81F6
:104810000E94A88F688379838A839B83A70196016E
:104820006C817D818E819F810E94A88F6C837D83A6
:104830008E839F83A7019601688579858A859B85EC
:104840000E94A88F688779878A879B872C9683E048
:10485000C33AD807B9F68091B3039091B403A091FD
:10486000B503B091B60380930A0190930B01A09316
:104870000C01B0930D01DF91CF91FF90EF90DF908D
:10488000CF900895CF92DF92EF92FF92CF93DF9374
:10489000E2E0FDE06491EF012196662331F081EEC4
:1048A0009CE00E946A0DFE01F5CFEDE0F3E064911B
:1048B000EF012196662331F081EE9CE00E946A0DA3
:1048C000FE01F5CF8AE50E948313882309F43DC0D9
:1048D0000E94F8126B017C0120E030E040EA51ECCC
:1048E0000E94859287FD0AC020E030E040EA51E452
:1048F000C701B6010E94829018161CF4E6EFF2E0A0
:1049000019C0C092B303D092B403E092B503F09201
:10491000B60380E04ADF4091B3035091B403609145
:10492000B5037091B60322E030E081EE9CE00E9476
:10493000680D17C06491EF012196662391F081EE16
:104940009CE00E946A0DFE01F5CF4091B3035091A7
:10495000B4036091B5037091B60383EF92E00E94B7
:104960005F6C6AE081EE9CE0DF91CF91FF90EF9069
:10497000DF90CF900C946A0DCF92DF92EF92FF926E
:104980000F931F93CF9383E50E948313811104C07B
:1049900006E412E0C0E00EC00E94F8126B017C0138
:1049A000C0E0B701A6018C2F0E94A275CF5FC53071
:1049B000C1F7EECFF80181918F010E948313882304
:1049C00039F00E94F812AB01BC018C2F0E94A27535
:1049D000CF5FC43079F7CF911F910F91FF90EF9087
:1049E000DF90CF900895CF93DF9383E50E948313E8
:1049F000882321F00E943913EC0102C0C0E0D0E00E
:104A000080E50E948313882319F00E94461301C099
:104A10008FEFBE01DF91CF910C94E375CF93DF93BD
:104A2000E8E0FDE06491EF012196662331F081EE2C
:104A30009CE00E946A0DFE01F5CFE4EEF2E0649185
:104A4000EF012196662331F081EE9CE00E946A0D11
:104A5000FE01F5CFDF91CF910895CF93DF9380933F
:104A6000D103E2E0FDE06491EF012196662331F08D
:104A700081EE9CE00E946A0DFE01F5CF6091D103AA
:104A800070E081EE96E00E94226C6AE081EE9CE08C
:104A9000DF91CF910C946A0DCF93DF930E94101099
:104AA000E0919805F0E0E159FC4F80818823A1F066
:104AB000E8EDF2E06491EF012196662331F081EE9A
:104AC0009CE00E946A0DFE01F5CF6AE081EE9CE059
:104AD000DF91CF910C946A0DDF91CF910895CF9221
:104AE000DF92EF92FF92CF93DF9320912401222354
:104AF00009F485C0EC01C090D403D090D503E090B8
:104B0000D603F090D703A7019601688179818A8145
:104B10009B810E94829087FF04C0C882D982EA826A
:104B2000FB82C090D803D090D903E090DA03F090D4
:104B3000DB03A70196016C817D818E819F810E949C
:104B4000829087FF04C0CC82DD82EE82FF82C0901B
:104B5000DC03D090DD03E090DE03F090DF03A701DB
:104B60009601688579858A859B850E94829087FF5A
:104B700004C0C886D986EA86FB86C0901801D0900A
:104B80001901E0901A01F0901B01A70196016881BC
:104B900079818A819B810E948592181624F4C882AB
:104BA000D982EA82FB82C0901C01D0901D01E09066
:104BB0001E01F0901F01A70196016C817D818E81FD
:104BC0009F810E948592181624F4CC82DD82EE82A9
:104BD000FF82C0902001D0902101E0902201F0904E
:104BE0002301A7019601688579858A859B850E94A6
:104BF0008592181624F4C886D986EA86FB86DF914A
:104C0000CF91FF90EF90DF90CF9008956F927F92B9
:104C10008F929F92AF92BF92CF92DF92EF92FF92CC
:104C20000F931F93CF93DF93EC012091E00330911A
:104C3000E1034091E2035091E303688179818A8125
:104C40009B810E94A88F6B017C014091AB03509126
:104C5000AC03BA01550F880B990B0E9424919B015C
:104C6000AC01C701B6010E94A88F4B015C012091E5
:104C7000E4033091E5034091E6035091E7036C8132
:104C80007D818E819F810E94A88F6B017C01809124
:104C9000AD039091AE03BC01990F880B990B0E9454
:104CA00024919B01AC01C701B6010E94A88F6B0142
:104CB0007C01A5019401609106017091070180912A
:104CC0000801909109010E948290882309F466C02E
:104CD0008092060190920701A0920801B09209010A
:104CE0002091A3033091A4034091A5035091A60302
:104CF000C501B4010E94C0924B015C010E945F910A
:104D00008B01D82FC92F20E030E0A9010E948290AA
:104D100087FD10C020E030E040E050E4B8018D2F66
:104D20009C2F0E94859218164CF400E010E0D0E011
:104D3000C0E404C000E010E0D0E0C0E098014D2FD6
:104D40005C2FC501B4010E94A88F4B015C0120E0DB
:104D500030E0A9010E94829087FD09C0809204037F
:104D600090920503A0920603B092070308C0109228
:104D70000403109205031092060310920703B80172
:104D80008D2F9C2F0E94F1906093030316161CF048
:104D900081E0860F01C082E080930203A7019601A3
:104DA00060910201709103018091040190910501CD
:104DB0000E948290D0910101C0910303811103C030
:104DC000DC1364C02AC1C0920201D0920301E092B8
:104DD0000401F09205012091A7033091A8034091AE
:104DE000A9035091AA03C701B6010E94C0924B01CA
:104DF0005C010E945F913B018C0120E030E0A90141
:104E00000E94829087FD0CC020E030E040E050E43A
:104E1000B301C8010E94859218163CF0730109C0C5
:104E2000E12CF12C00E010E004C0E12CF12C00E0BA
:104E300010E49701A801C501B4010E94A88F4B019D
:104E40005C0120E030E0A9010E94829087FD09C04A
:104E50008092FE029092FF02A0920003B0920103A2
:104E600008C01092FE021092FF02109200031092EE
:104E70000103B701C8010E94F1906093FD0216166C
:104E800014F06F5F01C062E06093FC022091FD02AC
:104E9000DC1305C080910001821709F474C0C0932F
:104EA0000101209300018C2FCC0F990BC22F220FF0
:104EB000DD0B9C01220F331F820F931FFC01EC0FAF
:104EC000FD1FEE0FFF1FEE0FFF1FE158FC4F20816B
:104ED0003181428153812093F8023093F90240934B
:104EE000FA025093FB020091FC02002E000C110B01
:104EF000FC01E00FF11FEE0FFF1FEE0FFF1FE15847
:104F0000FC4F60817181828193810E94A88F6093A0
:104F1000F4027093F5028093F6029093F702E09109
:104F200002030E2E000CFF0BCF01880F991FE80F14
:104F3000F91FCE0FDF1FCC0FDD1FCC0FDD1FC158B7
:104F4000DC4F288139814A815B812093F0023093C4
:104F5000F1024093F2025093F302E00FF11FEE0FC3
:104F6000FF1FEE0FFF1FE158FC4F608171818281AE
:104F700093810E94A88F6093EC027093ED0280935E
:104F8000EE029093EF028090FE029090FF02A090BC
:104F90000003B09001032091F4023091F50240919A
:104FA000F6025091F702C501B4010E94C09220910F
:104FB000F8023091F9024091FA025091FB020E94EE
:104FC000A98F6B017C016093E8027093E9028093E2
:104FD000EA029093EB022091EC023091ED024091B5
:104FE000EE025091EF02C501B4010E94C0922091DF
:104FF000F0023091F1024091F2025091F3020E94CE
:10500000A98FA70196010E94A88F6093E402709374
:10501000E5028093E6029093E7022091E40230914A
:10502000E5024091E6025091E7026091040370911D
:10503000050380910603909107030E94C09220917E
:10504000E8023091E9024091EA025091EB020E949D
:10505000A98FDF91CF911F910F91FF90EF90DF907B
:10506000CF90BF90AF909F908F907F906F9008955A
:10507000CF93DF9380E090E00E946974C3E7D3E0B0
:10508000688379838A839B8381E090E00E946974BE
:105090006C837D838E839F8382E090E00E9469749D
:1050A000688779878A879B87DF91CF910895CF930F
:1050B000DF93EC01DDDF83E793E00E94095EC436F5
:1050C000D10551F48CE0E3E7F3E0A8EBB5E0019003
:1050D0000D928A95E1F711C0CC0FDD1FCC0FDD1FBB
:1050E000FE01E854FA4FCD58DC4F88819981AA819E
:1050F000BB8180839183A283B383DF91CF91089595
:105100001F93CF93DF93CDB7DEB72C970FB6F894EC
:10511000DEBF0FBECDBF882361F02091AF03309179
:10512000B003232B19F12091B1033091B203232B4B
:10513000E9F0909115068917C9F0182F8CE0EFE778
:10514000F1E0DE01119601900D928A95E1F7CE0112
:1051500001965CDD10931506111104C082E090E009
:10516000A6DF04C088EB95E00E94095E2C960FB67E
:10517000F894DEBF0FBECDBFDF91CF911F91089590
:1051800080E0BEDFEFEAF3E0138212821182108228
:10519000EBEAF3E01382128211821082EFE7F3E070
:1051A00080E090E0A0ECBFE780839183A283B3838B
:1051B00084839583A683B78380879187A287B387EB
:1051C00084879587A687B787808B918BA28BB38BBB
:1051D000848B958BA68BB78B808F918FA28FB38F8B
:1051E000848F958FA68FB78F80A391A3A2A3B3A31B
:1051F0000895EF92FF920F931F93CF93DF9300D008
:1052000000D0CDB7DEB70E94FB7380E079DF0E944B
:10521000241011E01093360188E50E948313E82ED4
:1052200089E50E948313082F8AE50E948313F82ED4
:10523000E11004C0011104C0182705C0011102C00B
:1052400010E001C0182F80E1E8EBF5E0A8EAB5E036
:1052500001900D928A95E1F7111105C0E11003C08C
:10526000002309F440C020E030E040E251E46091C6
:10527000E8037091E9038091EA039091EB030E94A7
:10528000A98F6093B0057093B1058093B205909398
:10529000B3052091C0053091C1054091C2055091E0
:1052A000C3050E94859218165CF419821A821B822B
:1052B0001C82BE016F5F7F4F80EB95E00E94E1157D
:1052C000111105C0E11003C0011107C00CC080E03E
:1052D00090E00E9426171123B9F381E090E00E942C
:1052E0002617111101C0F1100E94E21A0E941C1130
:1052F0008091D905809336010E9443100E94180FB7
:105300000F900F900F900F90DF91CF911F910F9101
:10531000FF90EF900895CF92DF92EF92FF926B0192
:105320007C0160931106709312068093130690938C
:1053300014062DEB37E346E855EB0E94859287FD76
:105340000AC02DEB37E346E855E3C701B6010E94DA
:10535000829018164CF4A701960160E070E080E896
:105360009FE30E94899003C060E070E0CB016093EE
:105370000D0670930E0680930F0690931006809191
:105380001506882339F082E090E0FF90EF90DF90DF
:10539000CF908DCEFF90EF90DF90CF9008951F9328
:1053A000CF93DF9386E50E948313882341F0809199
:1053B000AF039091B003892B11F00E94820F83E517
:1053C0000E948313882329F00E947513C82F98DE4A
:1053D00001C0C0E08AE50E948313882319F00E946F
:1053E000F81299DF10911506C11103C0E2E0FDE04B
:1053F0001CC01111FBCFE8E0FDE06491EF012196A4
:10540000662331F081EE9CE00E946A0DFE01F5CF2B
:10541000E4E8F3E06491EF012196662339F381EE2D
:105420009CE00E946A0DFE01F5CF6491EF01219688
:10543000662331F081EE9CE00E946A0DFE01F5CFFB
:10544000111103C063EE71E002C06FED71E086E7F9
:1054500093E00E94FA6B6AE081EE9CE0DF91CF91CD
:105460001F910C946A0D0E9481740E94FB7384E664
:1054700090E01DDE0C941C11CF93DF93CDB7DEB707
:1054800028970FB6F894DEBF0FBECDBF20E030E006
:1054900040E752E40E94899069837A838B839C83DE
:1054A00020E030E04AE753E46091E8037091E903BB
:1054B0008091EA039091EB030E94A88F6D837E8315
:1054C0008F839887BE016F5F7F4FCE0105960E9444
:1054D000E1151092D80582E090E0E9DD0E941C11F0
:1054E00028960FB6F894DEBF0FBECDBFDF91CF91E7
:1054F00008953F924F925F926F927F928F929F9208
:10550000AF92BF92CF92DF92EF92FF920F931F93D1
:10551000CF93DF93CDB7DEB760970FB6F894DEBFB9
:105520000FBECDBF2B013C0149015A01302E87012E
:105530008091310190913201A0913301B0913401F9
:105540008D879E87AF87B88B60E070E080EA90E43B
:105550000E94EC1580910F0190911001A091110112
:10556000B09112018093310190933201A0933301E5
:10557000B093340119821A821B821C8220E030E031
:1055800040E251E4C501B4010E94A88F6D837E837F
:105590008F83988720E030E040EA51E4C301B201F4
:1055A0000E94A88F69877A878B879C87AE014F5F9F
:1055B0005F4FBE016B5F7F4FCE0109960E94E815D9
:1055C00081E00E94DD16882339F0C12CD12C80ECBB
:1055D000E82E8FE7F82EAAC00E94101060E070E05D
:1055E00080E793E449DF80E090E0A0E8B0E48983BD
:1055F0009A83AB83BC83C090C005D090C105E09076
:10560000C205F090C3058FE499E00E944D0D9B0107
:10561000AC01C701B6010E94A98F6D837E838F8381
:105620009887BE016F5F7F4FCE0105960E94E115FE
:1056300060E070E080EF92E41FDF2091B3033091CF
:10564000B4034091B5035091B6036091C0057091C9
:10565000C1058091C2059091C3050E94A98F6B017D
:105660007C01311007C060E070E080EA90E40E94A5
:10567000EC1505C080E00E94DD168111A6CF033035
:1056800011050CF447C0EDEDF7E064918F010F5F59
:105690001F4F662331F081EE9CE00E946A0DF801F5
:1056A000F4CF23E030E0B301A20181EE9CE00E9440
:1056B000680DE8EDF7E064918F010F5F1F4F6623DF
:1056C00031F081EE9CE00E946A0DF801F4CF23E0F6
:1056D00030E0B501A40181EE9CE00E94680DE3ED8D
:1056E000F7E064918F010F5F1F4F662331F081EE69
:1056F0009CE00E946A0DF801F4CF23E030E0B7018E
:10570000A60181EE9CE00E94680D6AE081EE9CE0BB
:105710000E946A0D8D859E85AF85B8898093310181
:1057200090933201A0933301B0933401C701B601C5
:1057300060960FB6F894DEBF0FBECDBFDF91CF915C
:105740001F910F91FF90EF90DF90CF90BF90AF909F
:105750009F908F907F906F905F904F903F900895B3
:105760004F925F926F927F928F929F92AF92BF9271
:10577000CF92DF92EF92FF920F93CF93DF93CDB74B
:10578000DEB72C970FB6F894DEBF0FBECDBF88E50D
:105790000E948313882319F00E94F8120EC020E0A3
:1057A00030E040EA51E46091B8057091B90580910C
:1057B000BA059091BB050E94A98F2B013C0189E598
:1057C0000E948313882319F00E94F8120EC020E073
:1057D00030E040E251E46091BC057091BD058091DC
:1057E000BE059091BF050E94A98F4B015C014982C3
:1057F0005A826B827C826D837E838F83988720E0C0
:1058000030E0A9016091E8037091E9038091EA0317
:105810009091EB030E94A98F69877A878B879C8779
:1058200061E0CE0101960E94271A082F882309F40F
:105830005EC080E065DC0E94241083E50E94831333
:10584000882319F00E947513082FEE24E394F12C9D
:10585000A5019401C301B2014CDE6B017C012CEA6D
:1058600035EC47E257E3C301B2010E94A98FAB01B7
:10587000BC0185E196E00E94806C2CEA35EC47E2A1
:1058800057E3C501B4010E94A98FAB01BC0180E1BF
:1058900096E00E94806C2CEA35EC47E257E3C701A2
:1058A000B6010E94A98FAB01BC018BE096E00E947B
:1058B000806C6AE081EE9CE00E946A0D0E944310B9
:1058C0002C960FB6F894DEBF0FBECDBFDF91CF91FF
:1058D0000F91FF90EF90DF90CF90BF90AF909F908F
:1058E0008F907F906F905F904F900C94180F2C9634
:1058F0000FB6F894DEBF0FBECDBFDF91CF910F91F1
:10590000FF90EF90DF90CF90BF90AF909F908F90DF
:105910007F906F905F904F9008952F923F924F929B
:105920005F926F927F928F929F92AF92BF92CF922F
:10593000DF92EF92FF920F931F93CF93DF93CDB738
:10594000DEB7E8970FB6F894DEBF0FBECDBF6DA7E8
:105950007EA78FA798AB8A0119018091B805909115
:10596000B905A091BA05B091BB058D8B9E8BAF8B0D
:10597000B88F8091E0039091E103A091E203B09190
:10598000E30389A39AA3ABA3BCA3A091AB03B091FB
:10599000AC03BEA3ADA3BD01BB0F880B990B0E9446
:1059A00024912B013C018091A3039091A403A09129
:1059B000A503B091A603898B9A8BAB8BBC8B29A1D5
:1059C0003AA14BA15CA16D897E898F89988D0E9437
:1059D000A88FA30192010E94A88F29893A894B8937
:1059E0005C890E94C0920E94F19069AB7AAB8BAB4C
:1059F0009CAB8091BC059091BD05A091BE05B09176
:105A0000BF05898F9A8FAB8FBC8FC090E403D09075
:105A1000E503E090E603F090E703A091AD03B091B9
:105A2000AE03B8A7AFA3BD01BB0F880B990B0E94B3
:105A300024914B015C018091A7039091A803A09150
:105A4000A903B091AA0389A79AA7ABA7BCA7A701EE
:105A50009601698D7A8D8B8D9C8D0E94A88FA501F2
:105A600094010E94A88F29A53AA54BA55CA50E9488
:105A7000C0920E94F1906DAB7EAB8FAB98AF8091DE
:105A8000A8059091A905A091AA05B091AB058D8FAD
:105A90009E8FAF8FB8A329A13AA14BA15CA1BC01F5
:105AA000CD010E94A88FA30192010E94A88F29898D
:105AB0003A894B895C890E94C0920E94F1902B0127
:105AC0003C018091AC059091AD05A091AE05B091DF
:105AD000AF05898B9A8BAB8BBC8BA7019601BC0160
